:020000040800F2
:1000000000000220E1020008FB1F0008F71F0008A3
:10001000F91F0008210A0008BB27000800000000A3
:10002000000000000000000000000000FF1F0008AA
:10003000230A000800000000FD1F0008012000083E
:10004000FB020008FB020008FB020008FB0200089C
:10005000FB020008FB020008FB020008FB0200088C
:10006000FB020008FB020008FB020008FB0200087C
:10007000FB020008FB020008FB020008FB0200086C
:10008000FB020008FB020008FB020008FB0200085C
:10009000FB020008FB020008FB020008FB0200084C
:1000A000FB020008FB020008FB020008FB0200083C
:1000B000FB020008FB020008FB020008FB0200082C
:1000C000FB020008FB020008FB020008FB0200081C
:1000D000FB020008FB020008FB020008FB0200080C
:1000E000FB020008FB02000800000000FB02000801
:1000F000FB020008FB020008FB020008FB020008EC
:10010000FB020008FB020008FB020008FB020008DB
:10011000FB020008FB020008FB020008FB020008CB
:10012000FB020008FB020008FB020008FB020008BB
:10013000FB020008FB020008FB020008FB020008AB
:1001400000000000000000000000000000000000AF
:10015000FB020008FB020008FB020008FB0200088B
:10016000FB020008FB020008FB020008FB0200087B
:10017000FB020008FB020008FB0200080000000070
:10018000FB020008FB020008FB020008FB0200085B
:10019000FB020008FB020008FB020008FB0200084B
:1001A000FB020008FB020008FB0200080000000040
:1001B000FB020008FB020008FB020008FB0200082B
:1001C000FB020008FB020008000000000000000025
:1001D0000000000000000000FB020008000000001A
:1001E000000000000000000000000000000000000F
:1001F0000000000000000000FB020008FB020008F5
:10020000FB020008FB02000800000000FB020008DF
:10021000FB020008FB020008FB020008FB020008CA
:10022000FB02000800000000FB02000800000000C4
:10023000FB020008FB02000800000000FB020008AF
:10024000FB020008FB020008FB020008FB0200089A
:10025000FB020008FB020008FB020008FB0200088A
:10026000FB020008FB020008FB020008FB0200087A
:10027000FB020008FB020008FB020008000000006F
:10028000FB020008FB020008FB020008FB0200085A
:1002900000000000FB020008FB0200080000000054
:1002A00000000000FB020008FB020008FB0200083F
:1002B000FB020008FB020008FB020008FB0200082A
:1002C000FB020008FB020008FB020008DFF80CD06C
:1002D00000F0DCFA004800474D4200080000022010
:1002E0000648804706480047FEE7FEE7FEE7FEE7D0
:1002F000FEE7FEE7FEE7FEE7FEE7FEE70520000873
:10030000CD0200082DE9F05F0546002092469B468D
:1003100088460646814640241BE02846414647461B
:10032000224600F0B4F853465A46C01A914110D301
:1003300011461846224600F09BF82D1A67EB01087B
:100340004F4622460120002100F092F817EB0009E9
:100350004E41201EA4F10104DFDC484631462A4606
:100360004346BDE8F09F10B5431A934209D2831863
:10037000881803E010F8011D03F8011D521EF9D280
:1003800010BD40EA01039B0703D009E008C9121F12
:1003900008C0042AFAD203E011F8013B00F8013B3F
:1003A000521EF9D210BDD2B201E000F8012B491E55
:1003B000FBD270470022F6E710B513460A46044602
:1003C0001946FFF7F0FF204610BD10B5484304461C
:1003D00003F078FF002805D00021002C02D0641E15
:1003E0000155FAE710BD00F0004230F000400AD09D
:1003F000C10D01F56071C0F3160042EA0151C20857
:1004000040071143704700200146704701F0004348
:1004100030B421F0004150EA010206D00A0DA2F5E5
:100420006072C1F31301002A02DC30BC0020704767
:10043000440F44EAC104C100E01830BC00EBC250D4
:1004400000F035B830B50B460146002020220124CB
:1004500009E021FA02F59D4205D303FA02F5491B92
:1004600004FA02F52844151EA2F10102F1DC30BDA8
:10047000202A04DB203A00FA02F100207047914064
:10048000C2F1200320FA03F3194390407047202A59
:1004900004DB203A21FA02F00021704721FA02F32E
:1004A000D040C2F12002914008431946704700290C
:1004B000A8BF7047401C490008BF20F001007047EA
:1004C00010B4B0FA80FC00FA0CF050EA010404BF4A
:1004D00010BC704749B1CCF1200421FA04F411FAA0
:1004E0000CF118BF012121430843A3EB0C01CB1DE4
:1004F0004FEA00614FEA102042BF002010BC704755
:1005000000EBC35010440029A4BF10BC7047401C2E
:10051000490008BF20F0010010BC70472DE9FE4FD4
:10052000804681EA0300C00F0C46009021F0004194
:1005300023F00045B8EB0200A94105D24046214610
:1005400090461C460B46024623F00040104347D01D
:10055000270DC7F30A00C3F30A510290401A019015
:1005600040286BDAC3F3130040F4801B00989246D6
:1005700020B10023D2EB030A63EB0B0B0198594621
:10058000C0F140025046FFF773FF06460D46504645
:100590005946019A00F08CF910EB080061410024E3
:1005A00087EA115284EAE7731A4340D0009A62B393
:1005B000019A012A4FEA075215DC001B61EB020188
:1005C0004FF0004202EA0752CDE90042001C41F51B
:1005D000801132462B4600F08CF903B0BDE8F08F55
:1005E00040462146F9E7001B61EB0201001C41F582
:1005F000801300185B412018A2F5001747EB030198
:1006000040EAD570B6196D4111E06D084FEA360623
:1006100045EAC0754FEA0752001B61EB0201001C5E
:1006200041F5801149084FEA300000195141324626
:100630002B4603B0BDE8F04F00F04CB90098012202
:1006400040000023D0EB020263EBE07300982146E8
:100650004FEAE074B8EB000061EB0401E9E783F0D6
:1006600000435BE781F0004158E72DE9FE4F81EA46
:10067000030404F0004421F0004100944FF0000B0B
:1006800023F0004350EA01045ED052EA03045BD039
:10069000C3F30A54C1F30A552C44A4F2F334019471
:1006A000A0FB0254C1F3130141F48011C3F31303FF
:1006B00043F4801301FB024400FB034E840A970AB3
:1006C00044EA815447EA8357A4FB076802958D0AE0
:1006D00005FB07854FEA932C04FB0C542705029D6C
:1006E0004FEA065847EA1637B5EB08056EEB070CDC
:1006F000870E920E47EA811742EA8312A7FB020196
:10070000B6EB0B0164EB00042B0D43EA0C335E18CF
:1007100044EB1C50DA465146E7FB0201C5F31304D3
:100720004FEA0B3343EA14534FEA0432019C43EA85
:100730000603A4F10C040294009CCDE900B400F07F
:10074000D8F803B0BDE8F08F00200146F9E72DE9A5
:10075000F04D81EA030404F0004B21F000451446FB
:100760004FF0000A23F0004150EA050220D054EA7D
:1007700001021DD0C5F30A570246C5F31303C1F3A6
:100780001300C1F30A5640F4801543F48013A7EB1D
:100790000608101BD64608F2FD3873EB050002D39D
:1007A00008F1010801E092185B41B8F1000F03DA8B
:1007B00000200146BDE8F08D00204FF48011064670
:1007C00084460EE0171B73EB050705D3121B63EB82
:1007D000050306434CEA010C49084FEA3000921821
:1007E0005B4150EA0107EDD152EA030012D082EAE0
:1007F000040083EA0501084305D0101BAB4106D273
:100800000122002306E000224FF0004302E06FF0D7
:10081000010253101AEB06004CEB085110EB0A00D2
:1008200041EB0B01BDE8F04D00F054B8C1F30A52A2
:10083000C1F3130140F2FF3341F480119A4202DA0E
:1008400000200146704740F233439A42A2F23342FD
:1008500002DC5242FFF71BBEFFF70ABE30B5041E92
:1008600071F1000404DB4FF00044404264EB0101ED
:10087000141E73F1000405DB1C464FF00043524286
:1008800063EB0403994208BF904230BD064C074D0C
:1008900006E0E06840F0010394E807009847103450
:1008A000AC42F6D3FFF716FD90430008C0430008A2
:1008B000202A06DBCB17203A41FA02F043EAE07324
:1008C00006E041FA02F3D040C2F120029140084311
:1008D0001946704710B5141E73F1000408DA401C65
:1008E00041F1000192185B411A4301D120F001004F
:1008F00010BD2DE9F04D92469B4611B1B1FA81F23F
:1009000002E0B0FA80F220329046FFF7B1FD0446D3
:100910000F4640EA0A0041EA0B0153465A46084393
:1009200013D0114653EA010019D0C8F140025046D5
:10093000FFF7ADFD05460E46504659464246FFF7C5
:1009400097FD084305D0012004E020463946BDE864
:10095000F08D0020054346EAE0762C4337430A98A1
:100960006305E40AA0EB08000022FD0A44EA4754AC
:100970000A3002D500200146E9E701051019694156
:10098000DDE9084500196941BDE8F04DA2E70EB563
:10099000C10F80EAE0700844CA07002140F23343E7
:1009A0008DE80E000A460B46FFF7A3FF03B000BD1B
:1009B00070B5C1F30A5201F000450024C1F31301E0
:1009C00040F2FF3341F480119A4201DA002070BDF9
:1009D00040F233439A42A2F2334203DC5242FFF721
:1009E00056FD00E090402C43F1D0404270BD000025
:1009F00030B5041E71F1000404DB4FF000444042A6
:100A000064EB0101141E73F1000405DB1C464FF07A
:100A10000043524263EB04038B4208BF824230BD65
:100A2000FEE770470B680022DFF810C2002B08BFFA
:100A300070472DE9F84FDFF808E2012703244FF053
:100A40000F0800BF0B6807FA02F52B4000F0EE809C
:100A50000E7906F00306012E18BF022E18D1D0F829
:100A600008905600D1F80CB004FA06FA29EA0A09EF
:100A70000BFA06F646EA09068660466891F8049085
:100A800026EA0505C9F3001909FA02F6354345605F
:100A90004D6834EA05050BD0C5685600D1F80890BA
:100AA00004FA06FA25EA0A0509FA06F63543C5608E
:100AB0000D7905F00305022D12D1D508D1F810A04B
:100AC0004FEA427900EB85052E6A4FEAD96908FAA8
:100AD00009FB0AFA09F926EA0B0649EA06062E621C
:100AE00091F804900568560009F0030904FA06FA23
:100AF00009FA06F625EA0A05354305604D6815F43E
:100B0000403F7CD0DEF8005045F00205CEF80050A2
:100B1000DEF8005022F0030606F1B04605F00205AB
:100B200000959507D6F808942D0FA0F1B04A08FA61
:100B300005FBBAF5003A29EA0B0908BF4FF0000A95
:100B400040D0A0F1B04ABAF5013A08BF4FF0010A0F
:100B500038D0A0F1B04ABAF5023A08BF4FF0020A05
:100B600030D0A0F1B04ABAF5033A08BF4FF0030AFB
:100B700028D0A0F1B04ABAF5043A08BF4FF0040AF1
:100B800020D0A0F1B04ABAF5053A08BF4FF0050AE7
:100B900018D0A0F1B04ABAF5063A08BF4FF0060ADD
:100BA00010D0A0F1B04ABAF5073A08BF4FF0070AD3
:100BB00008D0A0F1B04ABAF5093A0CBF4FF0090AC3
:100BC0004FF00A0A0AFA05FA4FF0B0454AEA090955
:100BD000C6F80894D1F804902E6819F4801F26EA0C
:100BE000030618BF1E432E60D1F804906E6819F4F6
:100BF000001F26EA030618BF1E436E6000E015E0E2
:100C0000DCF804504E6825EA030516F4003F18BFCF
:100C10001D43CCF80450DCF800504E6825EA03056B
:100C200016F4803F18BF1D43CCF800500B68521CCF
:100C3000D3407FF407AFBDE8F88F00008000005874
:100C4000F444025801488068704700000000002406
:100C500002488168027811448160704700000024D6
:100C6000032010B500F088F800F04EFC0F4A104940
:100C700013681268C3F3032302F00F02CB5C895C94
:100C800003F01F0201F01F01D0400A4A20FA01F1CF
:100C90001160094908600F2000F010F800281CBFFF
:100CA000012010BD00F02AF8002010BD18440258A1
:100CB00058430008100000240C00002470B50D4DAE
:100CC00004462878A0B14FF47A71B1FBF0F00A49DC
:100CD0000968B1FBF0F000F0EDFF48B9102C07D225
:100CE00000222146501E00F017F800206C6070BDF5
:100CF000012070BD000000240C000024054881B0D4
:100D0000016841F002010160006800F002000090FB
:100D100001B07047F4440258164B30B41B68C3F35B
:100D20000223C3F1070CBCF1040F88BF4FF0040C81
:100D30001C1D072C34BF0023DB1E012404FA0CFC0D
:100D400004FA03F5ACF101042140A5F1010C99402E
:100D50000CEA0202114300284FEA0111B8BF00F06B
:100D60000F0000F1E020ACBF80F8001480F8141DE3
:100D700030BC70470CED00E0074900F007004FF66B
:100D8000FF030A681A4042EA002040F0FD7040F07C
:100D900080600860704700000CED00E014490A68AC
:100DA00012F0040F07D1096801F00701814214BF56
:100DB00001200020704770B50A6822F00702104336
:100DC0000860FFF73FFF0B4D0446286810F4005FF2
:100DD0000CD100BFFFF736FF001BB0F57A7F01D9B9
:100DE000012070BD286810F4005FF3D0002070BDB2
:100DF0000C4802580448025810B500F005FB05499C
:100E00000968054AC1F30211515C01F01F01C84095
:100E100010BD0000204402585843000861494DF8B5
:100E2000044DDFF884C10B1D0A6809681C68DCF8F2
:100E300000C002F00303C1F30531C4F30012CCF388
:100E4000CC0C00291CFB02F200EE102AF8EE400A3E
:100E50007DD09FED561A564AB7EE000ACBB1DFEDB2
:100E6000551A012B01D0022B4ED002EE101A116838
:100E7000F8EE422AC1F3080181EEA22A01EE901A8F
:100E8000F8EE611A40EE811A71EE800A62EE200AD5
:100E90004FE0494BD3F800C01CF0200F1ED0DFF804
:100EA0001CC11B6801EE901AC3F3C1011368F8EE70
:100EB000612A2CFA01F101EE901AC3F30801F8EE51
:100EC000611A81EEA22A01EE901AF8EE611A40EE44
:100ED000811A71EE800A62EE200A2AE001EE901A71
:100EE0001168DFED372AF8EE611AC1F3080182EECE
:100EF000A12A01EE901AF8EE611A40EE811A71EE05
:100F0000800A62EE200A14E001EE901A1168DFED0B
:100F10002D2AF8EE611AC1F3080182EEA12A01EE32
:100F2000901AF8EE611A40EE811A71EE800A62EEB4
:100F3000200A1168C1F3462101EE101AB8EE411AD9
:100F400031EE001AC0EE811ABCEEE11A00E022E098
:100F500080ED001A1168C1F3064101EE101AB8EED7
:100F6000411A31EE001AC0EE811ABCEEE11A80ED92
:100F7000011A1168C1F3066101EE101AB8EE411AA8
:100F800031EE000A80EE801ABCEEC10A80ED020A42
:100F90005DF8044B704700210160416081605DF89D
:100FA000044B7047284402583C4402580000003962
:100FB000384402580024744A004402580090D00378
:100FC0000024744C20BCBE4B61494DF8044DDFF841
:100FD00084C10B1D0A6809681C68DCF800C002F0B7
:100FE0000303C1F30551C4F30022CCF3CC0C002958
:100FF0001CFB02F200EE102AF8EE400A7DD09FEDB5
:10100000561A564AB7EE000ACBB1DFED551A012B3E
:1010100001D0022B4ED002EE101A1168F8EE422ACF
:10102000C1F3080181EEA22A01EE901AF8EE611ACE
:1010300040EE811A71EE800A62EE200A4FE0494BC1
:10104000D3F800C01CF0200F1ED0DFF81CC11B68B5
:1010500001EE901AC3F3C1011368F8EE612A2CFA6D
:1010600001F101EE901AC3F30801F8EE611A81EE66
:10107000A22A01EE901AF8EE611A40EE811A71EE82
:10108000800A62EE200A2AE001EE901A1168DFED74
:10109000372AF8EE611AC1F3080182EEA12A01EEA7
:1010A000901AF8EE611A40EE811A71EE800A62EE33
:1010B000200A14E001EE901A1168DFED2D2AF8EEF7
:1010C000611AC1F3080182EEA12A01EE901AF8EE2E
:1010D000611A40EE811A71EE800A62EE200A1168F0
:1010E000C1F3462101EE101AB8EE411A31EE001A92
:1010F000C0EE811ABCEEE11A00E022E080ED001A99
:101100001168C1F3064101EE101AB8EE411A31EE32
:10111000001AC0EE811ABCEEE11A80ED011A1168C6
:10112000C1F3066101EE101AB8EE411A31EE000A61
:1011300080EE801ABCEEC10A80ED020A5DF8044B15
:10114000704700210160416081605DF8044B704789
:1011500028440258444402580000003940440258D0
:101160000024744A004402580090D0030024744CB8
:1011700020BCBE4B002804BF012070472DE9F05F62
:10118000DFF85C9204468A46D9F8000000F00F00B0
:1011900050450DD2D9F8000020F00F0040EA0A00B7
:1011A000C9F80000D9F8000000F00F0050457DD1CB
:1011B00020788C4D10F0040F0AD02069296801F0C6
:1011C0007001884204D9296821F070010843286021
:1011D0002078854E10F0080F0AD06069316801F060
:1011E0007001884204D9316821F0700108433060F1
:1011F000207810F0100F0AD0A069316801F4E06186
:10120000884204D9316821F4E061084330602078D5
:1012100010F0200F0BD07548E169026802F07002EF
:10122000914204D9026822F07002114301602078D3
:1012300010F0020F0AD0E068296801F00F0188421F
:1012400004D9296821F00F0108432860207810F0A4
:10125000010F45D06648A1682A6822F470621143E4
:1012600029606168022926D0032929D00068012954
:101270002BD010F0040F56D05E4F386820F00700D6
:1012800008433860FFF7DEFC39688046606801F08B
:101290003801B1EBC00F18BF41F2883B20D000BF2E
:1012A000FFF7D0FCA0EB0800584500E03BE010D968
:1012B0000320BDE8F09F006810F4003FDCD132E06D
:1012C000006810F0007FD7D12DE010F4807FD3D1DB
:1012D00029E06068396801F03801B1EBC00FDFD157
:1012E000207810F0020F0AD0E068296801F00F01A1
:1012F000814204D9296821F00F0108432860D9F8F8
:10130000000000F00F00504510D9D9F8000020F07F
:101310000F0040EA0A00C9F80000D9F8000000F008
:101320000F00504502D00120BDE8F09F207810F05A
:10133000040F0AD02069296801F07001814204D9A4
:10134000296821F0700108432860207810F0080F08
:101350000AD06069316801F07001814204D93168B6
:1013600021F0700108433060207810F0100F0AD08F
:10137000A069316801F4E061814204D9316821F447
:10138000E06108433060207810F0200F0BD0174840
:10139000E169026802F070028A4204D9026822F010
:1013A00070021143016000F0AFF813492B682A68FE
:1013B000C3F3032302F00F02CB5C895C03F01F022E
:1013C00001F01F01D0400D4A20FA01F111600C49D3
:1013D00008600C480068BDE8F05FFFF76FBC0000D4
:1013E00000200052184402581C440258204402585D
:1013F00000440258104402585843000810000024CA
:101400000C0000240400002410B500F07DF80C4A04
:101410000C490D4B1468D2F800C0C4F303220CF041
:101420000F0C8A5C11F80CC002F01F01074A20FA69
:1014300001F10CF01F0021FA00F01860116010BDDE
:101440001844025858430008100000240C000024DF
:1014500010B500F059F8104A1049114B1468D2F831
:1014600000C0C4F303220CF00F0C8A5C11F80CC00E
:1014700002F01F02D0400CF01F0220FA02F21A60A4
:10148000084B186008480068C0F30210085C00F0C0
:101490001F0022FA00F010BD1844025858430008FB
:1014A000100000240C0000241C44025810B500F069
:1014B0002BF8104A1049114B1468D2F800C0C4F33D
:1014C00003220CF00F0C8A5C11F80CC002F01F0212
:1014D000D0400CF01F0220FA02F21A60084B18608C
:1014E00008480068C0F30220085C00F01F0022FAE0
:1014F00000F010BD184402585843000810000024A2
:101500000C0000241C4402585E4930B45E4809684F
:101510005E4B11F038020CD00111082A06D0102AB7
:1015200002BF5B4830BC7047182A0ED030BC08465A
:101530007047196811F0200F04BF30BC704719685C
:1015400030BCC1F3C101C84070475249524C01F14F
:10155000040C0A680968DCF80050246802F0030CE7
:1015600005F00102C1F30511C4F3CC04002914FBFA
:1015700002F200EE102AF8EE400A02BF002030BC52
:101580007047BCF1000F9FED451A454AB7EE000ABF
:101590001BD0DFED441ABCF1010F02D0BCF1020FE9
:1015A0004AD002EE101A1068F8EE422AC0F3080082
:1015B00081EEA22A01EE900AF8EE611A40EE811A3D
:1015C00031EE800A22EE000A4BE0D3F800C01CF096
:1015D000200F1BD01B6801EE901A1168C3F3C103E2
:1015E000F8EE612AD84001EE900AC1F30800F8EE47
:1015F000611A81EEA22A01EE900AF8EE611A40EE1D
:10160000811A31EE800A22EE000A2AE001EE901AD9
:101610001068DFED252AF8EE611AC0F3080082EEAB
:10162000A12A01EE900AF8EE611A40EE811A31EE1D
:10163000800A22EE000A14E001EE901A1068DFED35
:101640001B2AF8EE611AC0F3080082EEA12A01EE0F
:10165000900AF8EE611A40EE811A31EE800A22EE0D
:10166000000A106830BCC0F34620401C00EE900A0F
:10167000F8EE600A80EE201ABCEEC10A10EE100AE5
:1016800070470000104402580090D00300440258F4
:1016900040787D0128440258344402580000003943
:1016A000304402580024744A0024744C20BCBE4BC1
:1016B000002804BF012070472DE9F0470446007858
:1016C000FD4FDFF8F89310F0010FFD4D58D038684A
:1016D000D9F8001000F03800102819D0182804BFDD
:1016E00001F00300022813D06068B0F5803F04BF0A
:1016F000286840F4803014D010B1B0F5A02F1BD072
:10170000286820F480302860286820F4802008E0D1
:10171000286810F4003F33D06068002800F0A482ED
:101720002EE028606068D0B1FFF78CFA0646286882
:1017300010F4003F08D023E0286840F4802028609F
:10174000286840F48030ECE7FFF77CFA801B6428BF
:1017500000F2D781286810F4003FF5D010E0FFF7C1
:1017600071FA0646286810F4003F09D0FFF76AFABC
:10177000801B642800F2C581286810F4003FF5D171
:10178000207810F0020F67D03868DFF83883D9F876
:10179000001010F0380013D0182808BF11F0030F04
:1017A0000ED0E068B0B3296821F019010843286021
:1017B000FFF748FA0646286810F0040F2BD01FE008
:1017C000286810F0040F03D0E068002800F04C8275
:1017D000E168286820F0190008432860FFF732FA12
:1017E0000646286810F0040F0AD100BFFFF72AFA56
:1017F000801B022800F28581286810F0040FF5D0C4
:10180000207CD8F8001021F0FE4141EA0060C8F8C1
:10181000000021E00AE0FFF715FA801B022800F221
:101820007081286810F0040FF5D0E9E7286820F0EF
:1018300001002860FFF706FA0646286810F0040F3A
:101840000AD000BFFFF7FEF9801B022800F2598181
:10185000286810F0040FF5D1207810F0100F4ED04A
:101860003868DFF86482D9F8001000F038000828E2
:1018700014D0182804BF01F0030001280ED0E0693D
:101880000028286827D040F080002860FFF7DAF9A8
:101890000646286810F4807F13D007E0286810F40B
:1018A000807F1CBFE069802840F0DE8194F8200032
:1018B000D8F8001021F07C5141EA0060C8F800001F
:1018C0001DE0FFF7BFF9801B02287CD8286810F4C0
:1018D000807FF6D0EAE720F080002860FFF7B2F9B9
:1018E0000646286810F4807F09D000BFFFF7AAF9E8
:1018F000801B022867D8286810F4807FF6D12078F2
:1019000010F0080F2ED0714E60690028306814D096
:1019100040F001003060FFF795F98046306810F024
:10192000020F1FD1FFF78EF9A0EB080002284AD85A
:10193000306810F0020FF5D014E020F001003060A4
:10194000FFF780F98046306810F0020F0AD000BF20
:10195000FFF778F9A0EB0800022834D8306810F0BF
:10196000020FF5D1207810F0200F2AD0A0690028AE
:10197000286813D040F480502860FFF763F90646CA
:10198000286810F4005F1CD1FFF75CF9801B022867
:1019900019D8286810F4005FF6D012E020F48050C7
:1019A0002860FFF74FF90646286810F4005F08D05A
:1019B000FFF748F9801B022805D8286810F4005F5B
:1019C000F6D1207800E089E010F0040F64D0404E9A
:1019D000306840F480703060FFF734F9804630683A
:1019E00010F4807F0AD100BFFFF72CF9A0EB0800AC
:1019F000642873D8306810F4807FF5D0A068DFF8D1
:101A0000D480012804BFD8F8000040F001000CD0B9
:101A100008B1052818D0D8F8000020F00100C8F857
:101A20000000D8F8000020F00400C8F80000A0680A
:101A300041F2883AF0B1FFF705F90646D8F8000000
:101A400010F0020F0BD027E0D8F8000040F004009F
:101A5000C8F80000D8F8000040F00100E5E7FFF703
:101A6000F1F8801B50454CD8D8F8000010F0020F58
:101A7000F5D011E0FFF7E6F80646D8F8000010F0C0
:101A8000020F09D0FFF7DEF8801B504539D8D8F88F
:101A9000000010F0020FF5D1606A00287ED0DFF858
:101AA00038A039680AF1040801F038011829AAF1B0
:101AB000040774D0022812E0104402582844025847
:101AC00000440258044402580C440258744402581A
:101AD00000480258704402583044025811E0286807
:101AE00020F0807028600FD0FFF7ACF8044628681B
:101AF00010F0007F52D000BFFFF7A4F8001B0228AF
:101B00007ED90320BDE8F087FFF79CF806462868D9
:101B100010F0007F09D000BFFFF794F8801B022867
:101B2000EFD8286810F0007FF6D1E16AD9F80000FC
:101B3000A26A20F0F30020F4407040EA0110104344
:101B4000C9F8000094F834004FF4FE02238E11020D
:101B5000B4F838C04FEA402994F83C60581EACF104
:101B60000103A6F1010CA9F5007606F47E46C0F348
:101B70000800304302EA0342104301EA0C610843C3
:101B8000CAF80000386820F001003860D8F800007A
:101B9000A16C6FF3CF0040EAC10001E087E03BE0B9
:101BA000C8F800003968206C21F00C010843386047
:101BB0003868616C20F0020008433860386840F4EF
:101BC00080303860386840F400303860386840F45D
:101BD00080203860386840F001003860286840F0A4
:101BE00080702860FFF72EF80446286810F0007F08
:101BF0005DD100BFFFF726F8001B022881D800E066
:101C000004E0286810F0007FF4D050E0286810F05D
:101C1000007F7FF471AF4AE0D9F800100128DAF8AC
:101C2000000021D0A26A01F0030393421CD1E26AB2
:101C3000C1F305118A4217D1216BC0F30802491E76
:101C40008A4211D1616BC0F34622491E91420BD1E9
:101C5000A16BC0F30642491E914205D1E16BC0F36E
:101C60000660491E814202D00120BDE8F087A16CC8
:101C7000D8F80000C0F3CC00814218D0386820F0BA
:101C800001003860FEF7DEFF4FEA0005FEF7DAFFDD
:101C9000A842FBD0A06CD8F800106FF3CF0141EA46
:101CA000C000C8F80000386840F00100386000202B
:101CB000BDE8F087401EB0F1807F24BF012070474F
:101CC0004FF0E0214861F020034A82F8140D002013
:101CD000072288610A6170470FE000E090F88410E5
:101CE000012904BF022070474DF8044D012280F8FD
:101CF000842024214FF0200C0022C0F888100168B5
:101D00000B680C6823F0005324F001040C60426659
:101D100001680B60C0F888C080F8842010465DF828
:101D2000044B704790F88420012A04BF02207047BA
:101D300030B4012280F884202423C0F8883003685E
:101D4000D3F800C01C6824F001041C6003689C6880
:101D500024F0606421439960416E002908BFA0F817
:101D60006A2014D00168114B03F108048A6889685D
:101D7000C2F34262490F5D5C615C2D01B5FBF1F578
:101D8000A0F86A50995CA25C0901B1FBF2F2A0F8DC
:101D90006820202203680021C3F800C0C0F8882012
:101DA00080F88410084630BC7047000048430008A3
:101DB00090F88420012A04BF0220704730B4012229
:101DC00080F884202423C0F888300368D3F800C04A
:101DD0001C6824F001041C6003689C6824F06044C3
:101DE00021439960416E002908BFA0F86A2014D0F1
:101DF0000168114B03F108048A688968C2F34262E2
:101E0000490F5D5C615C2D01B5FBF1F5A0F86A50EE
:101E1000995CA25C0901B1FBF2F2A0F868202022D3
:101E200003680021C3F800C0C0F8882080F884103F
:101E3000084630BC7047000048430008002804BF33
:101E40000120704710B50446D0F8880028B900205A
:101E500084F88400204600F029F82420C4F8880083
:101E60002068016821F001010160204600F006FAB7
:101E7000012808BF10BDA06A00281CBF204600F042
:101E800033F92068416821F49041416020688168FD
:101E900021F02A0181602068016841F001010160A0
:101EA0002046BDE8104000F08CB9000010B586B0A7
:101EB0000022009201920292039204920068A0F123
:101EC0008041B1F588311CBF06B010BD18480168CB
:101ED00041F010010160006800F010000590154805
:101EE000016841F001010160016801F00101059103
:101EF000016841F0010101600068022101224FF0F8
:101F0000070C00F00100059003230B4C4FF4007008
:101F10008DE80F1069462046FEF784FD4FF480607F
:101F2000694600902046FEF77DFD06B010BD00001A
:101F3000F0440258E0440258000002582DE9F843EA
:101F40000446D0F888001F4615460E4620281CBFC0
:101F50000220BDE8F883002E12BF002D0120BDE84D
:101F6000F88300212120C4F89010C4F88800FEF7FF
:101F700069FE8046A068A4F85450A4F85650B0F505
:101F8000805F07BF206900283546002608BF00256E
:101F9000B4F856004FF02009D8B100224346802102
:101FA0002046009700F06CFB00BB002D14BF15F815
:101FB000010B36F8020B216808BFC0F308008862E5
:101FC000B4F85600401EA4F85600B4F85600002895
:101FD000E3D10022434640212046009700F050FB09
:101FE000002804BFC4F88890BDE8F883C4F888903E
:101FF0000320BDE8F883FEE7FEE7FEE77047704781
:10200000FEF726BE2C4870B42C4A016841F47001DA
:102010000160106800F00F00072805D2106820F05A
:102020000F0040F00700106025490020254B0C6888
:10203000DFF894C044F001040C6018600B6803EAF8
:102040000C030B60136803F00F03072B05D913680B
:1020500023F00F0343F007031360DFF874C01B4A3B
:102060001C4B0CF10406341DCCF800001A4DDFF8AF
:102070006CC030602E1D2060341D2B60231DC6F8FF
:1020800000C003F1040C22600CF10404251D18604B
:102090002B1DCCF8002020602A6018600A6843F2EB
:1020A000D20C0F4B0F4C22F480220A601860C4F847
:1020B00000C070BC7047000088ED00E000200052B6
:1020C00000440258104402587FEDF6EA80020101F4
:1020D0001844025800020202284402580000FF017E
:1020E000604402580040005290F8281011F0010F8F
:1020F00006D00168C26A4B6823F400331A434A6071
:1021000090F8281011F0020F06D00168026B4B689E
:1021100023F480331A434A6090F8281011F0040F1A
:1021200006D00168426B4B6823F480231A434A604F
:1021300090F8281011F0080F06D00168826B4B68E8
:1021400023F400431A434A6090F8281011F0100F4E
:1021500006D00168C26B8B6823F480531A438A60EF
:1021600090F8281011F0200F06D00168026C8B68DF
:1021700023F400531A438A6090F8281011F0400F9E
:1021800011D00168426C4B6823F480131A434A60F3
:10219000416CB1F5801F06D10168826C4B6823F455
:1021A000C0031A434A6090F8281011F0800F08BF4E
:1021B00070470168C06C4A6822F4002210434860EE
:1021C00070472DE9F84300250446C0F89050FEF70B
:1021D00039FD8046206820266FF07E47006810F0A9
:1021E000080F17D00022434631042046009700F024
:1021F00047FA78B1216851E8000F20F0800041E8EB
:102200000002002AF6D1C4F88860032084F88450C4
:10221000BDE8F8832068006810F0040F23D0002286
:1022200043464FF480012046009700F029FAD0B1D0
:10223000206850E8001F21F4907140E80012002A45
:10224000F6D1206800F1080151E8000F20F00100EC
:1022500041E80002002AF4D1C4F88C60032084F81D
:102260008450BDE8F883C4F88860C4F88C60E566E3
:102270002567002084F88450BDE8F8832DE9F041FB
:10228000D0F808C00446C66986B00068D4E9045195
:10229000F44AF54B4CEA050C0768002531433A40F7
:1022A0004CEA0101114301602068E168426822F4B0
:1022B0004052114341602268A1699A421CBF206AC2
:1022C00001439668E94826F4306626F06E463143AD
:1022D00091602168626ACE6A26F00F063243CA62B4
:1022E0002268A2F1804CBCF5883C27D01CF54C41FB
:1022F00036D0B1F580613DD0B1F5806144D0B1F503
:1023000080614BD0B1F5444152D011F51C4160D0F1
:10231000B1F5806167D0B1F51C4172D0B1F5806133
:102320006ED09A424FD1001D006800F007000628C9
:1023300049D2DFE800F0A3A5A7A9ABAD006800F083
:10234000380018286FD006DC00286BD008286BD026
:1023500010286AD07CE0202868D0282867D077E051
:10236000006800F00700062872D2DFE800F0468916
:102370008B8D8F91006800F00700062868D2DFE897
:1023800000F03C7F81838587006800F00700062805
:102390005ED2DFE800F0327577797B7D006800F06F
:1023A0000700062854D2DFE800F0286B6D6F7173C8
:1023B000006800F03800182866D005DC90B30828C3
:1023C0005ED010285ED043E020285FD028285FD060
:1023D0003EE0006800F00700062839D2DFE800F090
:1023E0000D5052545658006800F0070006282FD2AE
:1023F000DFE800F00346484A4C4E002129E000E0A7
:1024000016E0006800F0380018283DD005DC48B11F
:10241000082835D0102835D01AE0202836D02828B2
:1024200036D015E028E02FE02AE02BE02EE02FE068
:10243000006800F03800182826D005DCE0B1082834
:102440001ED010281ED003E020281FD028281FD01F
:1024500080218748874F9A42874B4FF000064FEA0A
:10246000201261D110292CD014DC02291CD004299F
:102470001DD0082920D0F2E00121EAE70221E8E797
:102480000421E6E70821E4E71021E2E72021E0E764
:102490004021DEE7202908BF10461BD0402908BF95
:1024A0004FF4004016D0DAE0FEF7A6FC11E06846D3
:1024B000FEF7B4FC01980CE003A8FEF785FD049834
:1024C00007E0196811F0200F04D01968C1F3C101A9
:1024D000C840C8B3616AD4F8048037F8112008EB0B
:1024E0004803B0FBF2F18B4298BFB1EB083F40D8F4
:1024F00000231946FDF706FF02464FEA012C1102A0
:102500004FEA580008184CEA126242EB06014246B4
:102510000023FDF7F7FE5949A0F54072914224BF10
:102520002168C86058D29AE0D4F81CC04FF6EF7802
:10253000BCF5004F09D0082971D058DCE9B3012956
:1025400064D0042965D08AE046E008291DD005DC66
:1025500081B1012911D0042912D080E0102919D0AD
:10256000202908BF10461ED0402908BF4FF4004064
:1025700019D074E0FEF76CFF14E0FEF797FF11E04E
:102580006846FEF74BFC01980CE003A8FEF71CFD23
:10259000049807E0196811F0200F04D01968C1F3FE
:1025A000C101C840C0B1626A616837F81220B0FB4F
:1025B000F2F0400000EB510000E024E0B0FBF1F04D
:1025C000A0F1100141454AD84FF6F0732168C0F3DD
:1025D000420218401043C8600120A4F86A00A4F821
:1025E000680028466667A66706B0BDE8F081102936
:1025F0001AD0202908BF104620D0402908BF4FF428
:1026000000401BD02BE0FEF723FF15E0FEF74EFF46
:1026100012E06846FEF702FC01980DE0FFE703A810
:10262000FEF7D2FC049807E0196811F0200F05D0DE
:102630001968C1F3C101C8400028CDD0626A616841
:1026400037F81220B0FBF2F000EB5100B0FBF1F0D4
:10265000A0F1100141459CBF80B22168BBD9012582
:10266000BAE70000F369FFCF000C00585444025849
:102670000090D0033043000800440258FFFC0F00D4
:102680002DE9F047044600689A469146089D884621
:10269000C06931EA00000CBF01200020484504BF9A
:1026A000002620277AD100BFB5F1FF3F78D0FEF792
:1026B000C9FAA0EB0A00A84224D81DB3206801681B
:1026C00011F0040F6CD0C16911F0080F31D008224D
:1026D0000262216851E8000F20F4907041E8000385
:1026E000002BF6D12068083050E8001F21F00101CE
:1026F00021F0805140E80013002BF3D1E06E012857
:102700000CD102E00320BDE8F087206850E8001FEC
:1027100021F0100140E80013002BF6D1C4F88C70B2
:10272000E666666784F88460C4F890200120BDE8FE
:10273000F087C06910F4006F32D021684FF4006058
:102740000862216851E8000F20F4907041E800020F
:10275000002AF6D1206800F1080151E8000F20F0AE
:10276000010020F0805041E80002002AF2D1E06E22
:10277000012808D1216851E8000F20F0100041E83D
:102780000002002AF6D1C4F88C70E666C4F8907096
:102790006667032084F88460BDE8F0870AE0FFE7FD
:1027A0002068C06938EA00000CBF012000204845BD
:1027B0003FF47AAF0020BDE8F087FEE70FB4054B89
:1027C00010B503A9044A029800F0BCFC10BC5DF8E7
:1027D00014FB00008D3800081400002403B4019895
:1027E0004100009850EAC12018BF04204A0D18BFCC
:1027F00040F0010040F2FF72B2EB515F08BF40F0C1
:102800000200012808BF052002B070470000000048
:1028100010B54D492DED020B2DED048B84B0099CB4
:1028200024F000409FED4A9B884221DB04BF0898BA
:10283000002809D09DED080B04B0BDEC048B02B05C
:10284000BDE8104000F012B98DED029B9DED080B24
:1028500019EE901A10EE900A8DED000B61F31E0038
:1028600003909DED020B04B0BDEC048B02B010BDD3
:1028700039498842A4BFB0EE490AF0EE690A57DA36
:10288000B0F1725F0CDA9DED080B51EC100BFFF705
:10289000A5FF042808BF00F003F99DED080BE2E74F
:1028A0002E499DED080B814251EC100B9FED2C8BB6
:1028B0001CDC00F0DEFF53EC182BFDF7D6FE41ECDC
:1028C000100B00F0FDF853EC182B51EC100BFDF73A
:1028D00025FE41EC100B51EC180B53EC102BFDF7BF
:1028E00036FF53EC192BFDF7BDFE1FE000F0C1FFD2
:1028F0009FED1D1B53EC112BFDF7B7FE41EC100BA8
:1029000000F0DEF8B0EE409AF0EE609A53EC182B2F
:1029100051EC190BFDF702FE41EC180B51EC190BB1
:1029200081F0004153EC182BFDF711FF41EC100B27
:10293000002C98DA51EC100B81F0004141EC100BA7
:1029400091E70000000000000000F07F00000000A0
:10295000000000000000F03F000036400000F03FA3
:10296000000000000000004000000000000000C067
:10297000FFF74EBF70B504462DED028B4D1E00EBE8
:10298000C500B0EE408AF0EE608A90ED000B35F0A5
:10299000060017D053EC182B51EC100BFDF765FE19
:1029A00041EC100B6D1E04EBC50090ED001B51ECCB
:1029B000100B53EC112BFDF7B1FD41EC100B35F072
:1029C0000600E7D1022D36D0042D1CD0062D1CBFE9
:1029D000BDEC028B70BD53EC182B51EC100BFDF7C6
:1029E00044FE94ED0A1B53EC112BFDF797FD53ECBD
:1029F000182BFDF73AFE94ED081B53EC112BFDF755
:102A00008DFD41EC100B53EC182B51EC100BFDF726
:102A10002CFE94ED061B53EC112BFDF77FFD53ECC0
:102A2000182BFDF722FE94ED040B53EC102BFDF751
:102A300075FD41EC100B53EC182B51EC100BFDF70E
:102A400014FE94ED021B53EC112BFDF767FD53ECC4
:102A5000182BFDF70AFE94ED001B53EC112BFDF72C
:102A60005DFDBDEC028B41EC100B70BD10B553EC5D
:102A7000102B51EC100BFDF751FD41EC100B10BD6C
:102A80009FED050B10B553EC102B51EC100BFDF71F
:102A9000ECFD41EC100B10BD0000000000000070C8
:102AA0009FED050B10B553EC102B51EC100BFDF7FF
:102AB000DCFD41EC100B10BD000000000000001018
:102AC00070B52DED020B2DED0C8B82B00F9C9DEDA2
:102AD0000E0B14F0004508BF8DED000B05D051EC36
:102AE000100B81F00041CDE90001FF4824F00044C3
:102AF00084424BD3FD489FEDFE8BA04234D8FE4864
:102B000084421BD30E99C4F31300084309D09DEDF2
:102B10000E0B02B0BDEC0C8B02B0BDE87040FFF7AD
:102B2000A5BF35B99DED0E0B02B0BDEC0C8B02B00C
:102B300070BDB0EE480AF0EE680AF5E79FEDF00BC5
:102B400053EC102B9DED0E0B51EC100BFDF786FE98
:102B50000AD2022000F03EFA02B0BDEC0C8B02B0AB
:102B6000BDE87040FFF78CBF85B19FEDE70B53ECDC
:102B7000102B9DED0E0B51EC100BFDF7CFFC9FEDD4
:102B8000E40B53EC102BFDF733FFD2D3E2489FED5B
:102B9000E4AB844240F20581E3489FEDE59B9FED65
:102BA000E68BA04215D99DED0E0B53EC192B51EC81
:102BB000100B45B1FDF7B2FC41EC190B9FEDE08B1A
:102BC0004FF0FF3440E0FDF74AFD41EC190B0124C2
:102BD0003AE09FEDDD0B53EC102B9DED0E0B51EC0D
:102BE000100BFDF742FD41EC100B002D12BF9FEDC5
:102BF000D81BB0EE4A1AF0EE6A1A53EC112B51ECC6
:102C0000100BFDF78BFCFDF7D3FE0446FDF7BFFE6E
:102C1000CDE900019DED000B53EC192B51EC100B8D
:102C2000FDF723FD9DED0E1B53EC112BFDF71AFD57
:102C30009DED000B41EC190B53EC182B51EC100BD4
:102C4000FDF713FD41EC180B51EC190B53EC182B4D
:102C5000FDF705FDCDE90E019DED0E0B53EC192B93
:102C600051EC100BFDF7FEFC53EC182BFDF7F7FCB5
:102C700041EC1B0B9DED0E0B53EC1A2B51EC100B82
:102C8000FDF7F3FC41EC1D0B9DED0E0B53EC1D2BE2
:102C900051EC100BFDF7E9FC41EC180BAE48052197
:102CA000B0EE480AF0EE680A7844FFF763FE53EC92
:102CB000182B51EC100BFDF7D8FC9FEDA99B53ECA2
:102CC000192BFDF72BFC41EC1C0B53EC1D2BFDF7D6
:102CD000CCFC9FEDA51B53EC112BFDF7C3FCCDE9FC
:102CE00000019DED000B53EC102B9DED0E0B51ECF4
:102CF000100BFDF7BAFC9FED9E1B53EC112BFDF75B
:102D0000B1FC9DED000B41EC1D0B53EC102B51EC75
:102D10001C0BFDF7A4FC53EC1D2BFDF718FD53EC29
:102D2000182BFDF7A2FC41EC100BCCB353EC1B2B82
:102D300051EC100BFDF793FC9DED0E1B53EC112B8A
:102D4000FDF793FC53EC1B2BFDF789FC53EC182B80
:102D5000FDF785FC41EC180BB4F1FF3F47D0012C87
:102D600056D014F1020F01DD382C71DD9DED0E0BF4
:102D700053EC182B51EC100BFDF774FC53EC192B92
:102D8000FDF770FCCDE9000101EB045001909DEDD1
:102D9000000B53EC192B51EC100BFDF760FC54E0C9
:102DA00010E07548A04298BF00247FF663AF9DED08
:102DB0000E0B51EC100BFFF711FD042808BFFFF7B5
:102DC0006FFEAFE653EC102B9DED0E0B51EC100B8C
:102DD000FDF74BFC53EC182BFDF741FC9DED0E1B52
:102DE00053EC112BFDF73EFC41EC100B9CE69DEDE6
:102DF0000E0B53EC182B51EC100BFDF730FC53EC81
:102E00001A2BFDF732FC53EC1A2BFDF728FC1CE0C3
:102E10009FED5B0B53EC102B9DED0E0B51EC100B4B
:102E2000FDF7E6FD15D29DED0E0B53EC1A2B51EC80
:102E3000100BFDF773FB53EC182BFDF713FC9FED04
:102E4000521B53EC112BFDF710FC41EC100B6BE601
:102E500012E09DED0E0B53EC182B51EC100BFDF70F
:102E6000FEFB9FED4B1B53EC112BFDF7FEFB53ECD0
:102E7000192BFDF753FBE8E78DED009B142C1BDAB3
:102E80004FF40010E040C0F17F6000F1405001902D
:102E90009DED0E0B53EC182B51EC100BFDF7E2FBE4
:102EA0009DED001B53EC112BFDF7DCFBCDE9000180
:102EB00001EB045001907AE040F2FF30001B000566
:102EC00001909DED000B51EC180B53EC102BFDF70E
:102ED00025FB9DED0E1B53EC112BFDF7C3FB53ECB3
:102EE000192BCDE9000157E07A684340422E864015
:102EF000000000000000F0BF0000F07F00000000B4
:102F0000EF39FAFE422E864059F3F8C21F6EA50132
:102F10000000000000000000422ED63F000000002C
:102F2000000000000000E03FB2A2F03F00000000FF
:102F30000000E0FE422EE63F763C7935EF39EA3D6F
:102F4000763C7935EF39EABDFE822B654715F73FB0
:102F5000000000000000E0BFBC1600000000000000
:102F6000000000000000F03F0000000000000840EA
:102F700000000000000018400000903C000000002D
:102F8000000000000000D0BF00000000000000C0F2
:102F900000000000000000409DED000B51EC100B04
:102FA000FDF7BCFACDE9000101EB045001909DED65
:102FB000000BB9E502E008C8121F08C1002AFAD1C7
:102FC00070477047002001E001C1121F002AFBD1A9
:102FD000704700000149086070470000200000248D
:102FE0002DE9FF5FDDE90220010DDDF838B0024375
:102FF00018D044F61050A1F2FF3141430D140F9840
:10300000012820D0A5EB0B00401C5FEA000A4FF01E
:103010000004474EDFF81C91A046504616D5CAF171
:10302000000728E00F98012443A2012808D00021BE
:1030300000980F9BC0E90021C0E90243BDE8FF9F53
:103040006FEA0B01F4E7CBF10000DEE7074612E080
:10305000F80707D02246334640464946FDF705FBB0
:10306000804689462246334610461946FDF7FDFA4A
:1030700004460E467F10002FEAD1DDE90201BAF1C5
:10308000000F42464B4602DAFDF7EFFA01E0FDF78A
:103090005EFB04460E460022284BFDF7DFFB03D8FB
:1030A0004FF0FF30014607E00022254B2046314615
:1030B000FDF734FAFDF7BAFB102409E0002C0ADB17
:1030C0000A220023FDF71EF9019B30321A55641EB7
:1030D00050EA0102F2D1641C019AC4F111031444B4
:1030E0000F9A012A03D0012208430DD10AE00843B8
:1030F00004D000204FF0110B0F9080E7A3EB0B05DD
:103100006D1E0DE05B4504DD4FF0000205F1010589
:1031100004E003DA4FF00002A5F10105002AECD02B
:1031200000980F99C0E90231C0E9004586E7000028
:10313000000024400000F03F300000000000F04399
:103140000000E03F2DE9FF4F95B09B4689460646BB
:1031500000250FE2252877D100242746F84A0121CF
:10316000059400E0044316F8013F203B01FA03F008
:103170001042F7D130782A2811D06FF02F03307821
:10318000A0F13002092A16D8059A44F0020402EB95
:10319000820203EB42021044761C0590EFE759F8D7
:1031A000042B0592002A03DA504244F4005405909F
:1031B00044F00204761C30782E2816D116F8010F40
:1031C00044F004042A280DD06FF02F023078A0F1CB
:1031D0003003092B09D807EB870302EB4303C71819
:1031E000761CF3E759F8047B761C30786C280FD0F6
:1031F00006DC4C2817D068280DD06A2814D104E0CA
:10320000742810D07A280FD10DE044F400140AE09D
:1032100044F4801401E044F440147278824202D1F4
:1032200004F58014761C761C307866280BD013DCED
:10323000582877D009DC002875D04528F6D04628D4
:10324000F4D047281AD19DE118E0632835D06428CE
:1032500079D0652812D195E1702873D008DC6728F1
:10326000F1D069286FD06E280DD06F2806D1B5E057
:1032700073282CD0752875D0782874D05A461799A1
:1032800090476D1C75E1C4F30250022809D0032851
:103290000DD0D9F8001004280DD00D6009F10409F3
:1032A00067E1D9F80010EA17C1E90052F6E7D9F84A
:1032B00000100D80F2E70D70F0E719F8041B8DF88F
:1032C000001000208DF80100EA46012003E059F8C3
:1032D00004AB4FF0FF3061074FF0000102D40DE066
:1032E00008F101018846B9420FDA8045F8DB1AF887
:1032F00008100029F4D108E008F101018846814254
:10330000FADB1AF808100029F6D105985B46A0EB05
:10331000080721463846179A00F094FA284400EB33
:10332000080507E04DE029E10DE01AF8010B5A46C7
:1033300017999047B8F10108F7D25B462146384605
:10334000179A13E142E00A220092C4F302524FF0AE
:10335000000A022A08D059F804CB032A4FEAEC717C
:103360000AD00DE029E02AE009F1070121F0070267
:10337000F2E802C1914609E00FFA8CFC4FEAEC71C9
:10338000042A03D14FFA8CFC4FEAEC71002907DACA
:103390000A460021DCF1000C61EB02012D2202E063
:1033A000220504D52B228DF80420012203E0E20738
:1033B00001D02022F7E7904659E00A2102E01022CE
:1033C0000DE010214FF0000A00910BE010224FF0A9
:1033D000000A44F004040827009203E008224FF09A
:1033E000000A0092C4F30252022A05D059F804CB15
:1033F0000021032A08D009E009F1070121F00702A2
:10340000F2E802C1914605E01FFA8CFC042A01D1C2
:103410000CF0FF0C4FF00008220728D5702806D0CA
:10342000009B83F0100353EA0A0305D00EE040220C
:103430008DF80420012208E05CEA010206D0302267
:103440008DF804208DF8050002229046009B83F041
:10345000080353EA0A030AD15CEA010201D16207B8
:1034600005D530228DF804204FF001087F1E582822
:1034700004D034A003900EA802900DE036A0F9E726
:1034800053466046009AFCF73DFF84460398825CF1
:103490000298401E029002705CEA0100F0D102988E
:1034A00006A9081A00F1200A600702D524F4803426
:1034B00000E00127574502DDA7EB0A0000E00020ED
:1034C00000EB0A01009005984144401A0590E00382
:1034D00006D45B462146179A059800F0B3F90544D7
:1034E000002706E001A85A46C05D179990476D1C59
:1034F0007F1C4745F6DBE0030CD55B462146179A57
:10350000059800F09FF9054404E030205A461799C9
:1035100090476D1C0099481E00900029F5DC08E0DA
:10352000029802995A460078491C029117999047CF
:103530006D1CBAF10001AAF1010AF1DC65E100009D
:103540000928010030313233343536373839616279
:10355000636465660000000030313233343536373D
:1035600038394142434445460000000000F058F914
:103570000544761C307800287FF4ECAD19B028465D
:10358000BDE8F08F620700D4062709F1070222F098
:10359000070CFCE80223E14603F000485FEA080C50
:1035A00002D00FF2702C0DE05FEA045C02D50FF23E
:1035B000682C07E05FEAC47C02D00FF2602C01E0C7
:1035C000AFF2700C4FF0FF3823F00043CDF850C03D
:1035D00065280CD006DC452809D046281DD0472890
:1035E0003DD13DE0662818D067287ED138E0002123
:1035F000112F01DB112000E0781CCDE9000106A9A4
:103600000EA8FFF7EDFCDDE90F010E9A03910021F2
:10361000009207F1010A04914DE04FF0004000973D
:10362000CDE9011006A90EA8FFF7DAFCDDE90F02CB
:1036300003920E9B11990022DDF80CA000930492D6
:1036400011B9791C00EB010AB7EB0A0004D4C0F1F0
:10365000FF3007F1010A0490AAEB0700019044E053
:10366000012F00DA01270021112F01DD112000E0D8
:103670003846CDE9000106A90EA8FFF7B1FCDDE947
:103680000F010E9A0391002104910092BA4621077E
:103690000CD40399514500DA8A46BAF1010F05DDD1
:1036A000009AAAF10101515C302908D0B84202DA2F
:1036B00010F1040F06DA0121CDE9011015E0AAF19D
:1036C0000101E9E7002805DC049901440491AAEB13
:1036D000000102E0411C514500DD8A460499401A70
:1036E000401C01904FF000400290200704D4019844
:1036F000504501DBCDF8048000208DF84F00029882
:103700000DF14F07B0F1004F25D02B200E900298FD
:103710004FF0020800280CDA404202902D200E9053
:1037200007E00A210298FCF78DFE3031029007F87D
:10373000011DB8F10001A8F10108F2DC029800288F
:10374000EFD1791E0E980870307800F0200040F01C
:10375000450007F8020D12A8C01B00F107081498D5
:10376000007800B1012000EB0A01019801EBE07143
:1037700005984144401A401E0590E00306D45B467C
:103780002146179A059800F05DF8054414980078D2
:1037900018B15A46179990476D1CE00324D55B4633
:1037A0002146179A059800F04DF805441CE004984E
:1037B000002807DBDDE90301884203DD0098405C57
:1037C000179901E0179930205A469047049805F15F
:1037D0000105401C04900198401E019004D12E2048
:1037E0005A46179990476D1CBAF10001AAF1010AD7
:1037F000DDDC05E017F8010B5A46179990476D1C60
:10380000B8F10001A8F10108F4DC5B462146179AE3
:103810000598ABE62D0000002B0000002000000002
:103820002DE9F041044600251E461746880404D4BD
:1038300005E039462020B0476D1C641EF9D52846A6
:10384000BDE8F0812DE9F041044600251E46904672
:10385000C80301D5302700E02027880404D505E0FF
:1038600041463846B0476D1C641EF9D52846BDE870
:10387000F08182B0CDE9000121F0004001909DED82
:10388000000B02B051EC100B7047000013B5044858
:10389000642301226946FEF751FB009802B010BD77
:1038A0002400002410B5002821D0114B0022001F55
:1038B000196803E0814203D80A4649680029F9D112
:1038C00052B11368841A9C4204D1006818441060F5
:1038D000104602E0506000E0186039B102680B1A2F
:1038E000934203D10B681A4402604968416010BDDD
:1038F0001800002430B59DB04C216846FCF75AFDF5
:103900000024149415940220169417941894199472
:103910001A941B94FDF742FA1B48016821F44041B8
:103920000160016801F440411391016811F4005FE6
:10393000FBD04FF4803C0A22012102200990CDE9FE
:10394000001CDC230C93CDE90A02CDE90D100425FF
:103950000F90CDE9105468461294FDF7A9FE40205F
:1039600016944FF4806C08230322CDE91730CDE97B
:10397000190C3F211B90CDE9141214A81146FDF734
:10398000F9FB1DB030BD000018480258F8B50C46D0
:10399000074604214FF0FF3200F066FA4FF0FF3186
:1039A0000091022322460146384600F0E1FB052142
:1039B00006464FF0FF32384600F056FA97ED060AF9
:1039C000F1EE000A054620EE200A0121BCEEC00AF5
:1039D00010EE100AFCF7F9FC97ED060A0446BCEE5F
:1039E000C00A10EE100A00281CBF10EE100A0028B2
:1039F00032D010EE100A321F291F10F0010FA4F16F
:103A000004000AD092ED010AD1ED010A091D30EE41
:103A1000200A80ED010A001D121D97ED060ABCEE7A
:103A2000C00A10EE103A5B0816D000BF92ED010AF2
:103A3000D1ED010A0831083230EE200A5B1E80ED1C
:103A4000010A92ED000AD1ED000A30EE200A80ED65
:103A5000020A00F10800E9D13046FFF723FF2846AB
:103A6000FFF720FF3846FFF71DFF2046F8BD000096
:103A70002DE9F34F044601212DED028B85B090ED29
:103A8000030ABCEEC00A10EE109A4FEA89000190BA
:103A900000EE100AD4ED040AB8EE400A20EE800AC7
:103AA000BCEEC00A10EE100AFCF78FFC94ED050A7C
:103AB000824600200290BCEEC00A10EE101A81422D
:103AC00088BFB1EE008A40F2F48000BF94ED040A92
:103AD0000025BCEEC00A10EE100AA84240F2DC80BD
:103AE0000298089901EB8000039001210420FCF763
:103AF0006CFC0399042207460DE0002DF5D00198D7
:103B00000121FCF762FC0746019A681E00FB09F0E0
:103B10000AEB80013846FCF726FC6AB220460021F9
:103B2000164600F0A1F900233A46014620460096C9
:103B300000F01EFB012183460198FCF746FC074676
:103B4000029850B1002D00F0D58005FB09F0019AD4
:103B50000AEB80013846FCF706FC0121324620467C
:103B600000F082F901233A4601462046009600F013
:103B7000FFFA022107463246204600F075F903217C
:103B800080463246204600F06FF9CDF800B0064678
:103B900094ED030A012120EE080ABCEEC00A10EEE3
:103BA000100AFCF712FC94ED030A8346BCEEC00A2F
:103BB00010EE100A00281CBF10EE100A002819D0C1
:103BC00010EE100ADDF800E0C4463B463246594686
:103BD000FEEC010A401EBCEC011AF3EC011A70EE77
:103BE000810AB2EC010A70EEA10A30EE800AA1EC63
:103BF000010AEDD10098FFF755FE4046FFF752FE4F
:103C00003846FFF74FFE3046FFF74CFE94ED030AAF
:103C1000012120EE080ABCEEC00A10EE100AFCF7E3
:103C2000D4FB94ED030A07460026BCEEC00A10EE52
:103C3000100AB04217D900BF5BF82600FCF7D3FB8F
:103C400041EC100BFEF794FE51EC100BFCF7DEFB81
:103C500047F8260094ED030A761CBCEEC00A10EE6D
:103C6000100AB042E8D85846FFF71CFE05FB09F0E1
:103C7000019A39460AEB8000FCF775FB3846FFF7DE
:103C800011FE94ED040A6D1CBCEEC00A10EE100A81
:103C9000A8423FF632AF00BF94ED050A0298BCEE91
:103CA000C00A401C0290029910EE100A88423FF6AA
:103CB0000DAF0898FFF7F6FD01980121FCF785FB91
:103CC00094ED040AF7EE000A0546019A30EE600A08
:103CD000BCEEC00A10EE100A00FB09F00AEB8001EE
:103CE0002846FCF740FB05B02846BDEC028B02B02D
:103CF000BDE8F08F019A51463846FCF734FB2CE7BB
:103D000070B5234E0020316811F4003F11D1BFF38C
:103D10004F8FBFF36F8F1F490860BFF34F8FBFF303
:103D20006F8F316841F400313160BFF34F8FBFF3C3
:103D30006F8F316811F4803F22D117490860BFF3BB
:103D40004F8F081F43F6FF7500681449C0F34E3CBF
:103D5000C0F3C90405EA4C12204600BF42EA807352
:103D60000B60401EFAD2BCF1010CF3D2BFF34F8FAF
:103D7000306840F480303060BFF34F8FBFF36F8FF7
:103D8000FCF76EFFFFF7B6FDBDE8704000F0C8B964
:103D900014ED00E050EF00E084ED00E060EF00E0A3
:103DA00070B520200121FCF710FBDFF8B8C0031F1D
:103DB000002204210CEB8205491E95ED000A02F158
:103DC000020283ED010A95ED010A03F1080383ED78
:103DD000000AEFD1D0ED000A90ED071A90ED050A28
:103DE000044670EE810ABCEEC00AFCEEE00A10EE5A
:103DF000101A10EE900A8D00012186002846FCF76B
:103E0000E4FA06F1006C0146032D0CF5003C20D9C4
:103E1000AA081ED012F0010F4FF00003A1F1040018
:103E200005D09CED000A012380ED010A001D520817
:103E30000FD000BF0CEB830503F1020395ED000AE0
:103E400080ED010A083095ED010A521E80ED000A4E
:103E5000F0D12046FFF70CFE01462046BDE8704039
:103E6000FFF794BD000002082DE9F0414FF0000576
:103E700004292E46B1EE001A2B462C4633D00529D4
:103E80001AD0002A4CD01FFA82FCBCF1000F75D06A
:103E900090ED030AD0ED010A96B220EE002A60EE02
:103EA000201AFCEEC00ABCEEC20A10EE902AFCEE0C
:103EB000E10A10EE104AA2E0D0ED000AD0ED071A98
:103EC00090ED060A70EEA10A70EEC00A20EE010A1B
:103ED00060EE810ABCEEC00AFCEEE00A10EE105A59
:103EE00010EE906AEDE0D0ED001A90ED072A90ED0B
:103EF000060AD0ED030A71EE821A20EE812A71EED5
:103F0000C01A40EEC01A22EE000ABCEEC00A61EEF2
:103F1000810A10EE105AFCEEE00A10EE906AD0E032
:103F200031B1012915D0022929D003293CD0C8E09C
:103F3000D0ED030A90ED000A60EE810A20EE011A2E
:103F4000BCEEE00AFCEEC10A10EE105A10EE906AC8
:103F5000B7E090ED030AD0ED000A60EE011A70EEB2
:103F6000800A21EE800A60EE810ABCEEC00AFCEEF7
:103F7000E00A10EE105A10EE906AA2E038E0D0EDA0
:103F8000000A90ED030A70EE800A40EE000A20EE6F
:103F9000010ABCEEC00A60EE810A10EE105AFCEE77
:103FA000E00A10EE906A8CE0D0ED000A90ED030A72
:103FB00070EE800A60EE011A40EE000A70EE800A90
:103FC000BCEEE10A60EE810A10EE105ABCEEE00A87
:103FD00075E0002D18BF10EE10CA10D0771EA44453
:103FE0003E0494449444360C634405F10105F0D139
:103FF000062957D2DFE801F05606101A2B3C10EEC6
:1040000090CAEBE790ED030A20EE000ABCEEC00A6E
:1040100010EE101A0B4445E090ED030A20EE000A62
:10402000BCEEC00A10EE101ACA181FE090ED030A89
:1040300060EE001AFCEEC00ABCEEE10A10EE90CA77
:1040400010EE101ACA1811440CEB01032AE090ED8F
:10405000030A60EE000ABCEEC00AFCEEE00A10EEB5
:10406000101A10EE902A13441A440A448B1819E0CF
:1040700090ED030AD0ED060A20EE002A60EE201A29
:10408000FCEEC00ABCEEC20A10EE901AFCEEE10A89
:1040900010EE102A10EE90CA13441A440A44114438
:1040A0000CEB010300EE103AD0ED000AA500B8EECB
:1040B000400A30EE800A20EE010ABCEEC00A10EE83
:1040C000106A01212846FCF780F906F100630446D6
:1040D000032D03F5003320D9A9081ED011F0010FDC
:1040E0004FF00002A4F1040005D093ED000A012274
:1040F00080ED010A001D49080FD000BF03EB820CC0
:1041000002F102029CED000A80ED010A08309CEDEC
:10411000010A491E80ED000AF0D12046BDE8F08179
:1041200012480021DFF840C00C2210B54FF4E133F3
:10413000C0F800C0C0E90131C160C0E9041281616A
:10414000C161016241628162FDF778FE074800218A
:10415000FDF72EFE05480021FDF7E4FDBDE8104007
:104160000248FDF7BBBD0000001001402400002400
:104170002DE9F04188460146174691ED030A06985D
:10418000BCEEC00A184310EE100A85B284B206D104
:1041900091ED010ABCEEC00A10EE100A84B2022BA7
:1041A00006D191ED060ABCEEC00A10EE100A85B2E7
:1041B0000121A800FCF709F9060018BF002D3AD02C
:1041C0004FF0000124BF62089FED1F2A33D900BFC2
:1041D000B0EE420A44B304FB01FC14F0010FA7F156
:1041E000040308EB8C00A0F1040C09D0DCED010AFB
:1041F00093ED011A03F104030CF1040C00EE810AA3
:10420000100011D09CED011AD3ED011ADCED020A69
:10421000401E01EE210A93ED021A03F108030CF18E
:10422000080C00EE810AEDD106EB8100491CA94281
:1042300080ED000ACCD34046FFF734FB3846FFF749
:1042400031FB3046BDE8F081000000002DE9F04769
:1042500086B0FFF755FDFFF7A3FD8246C068FCF767
:10426000C2F889468046DAF80800FCF7BCF80F4629
:104270000646DAF80400FCF7B6F80D460446DAF80C
:104280000000FCF7B0F841EC100B8DE8F00353ECA4
:10429000102B05A0FEF792FA5046FFF703FB06B07D
:1042A0000020BDE8F08700006D6F64656C206F75BD
:1042B00074203D205B256620256620256620256626
:1042C0005D0D0A00F0B50B30154D20F007010024FC
:1042D000144A0FE003688B420BD38B4205D95E1A58
:1042E00043184768C3E9006700E04368136002C0F1
:1042F00004E0021D10680028ECD12046002802D1FD
:10430000286808B10020F0BD064A07481060074A37
:10431000121A22F00702C0E9002401202860D7E722
:104320001C00002418000024BC000024B800042451
:10433000010002000400060008000A000C00100042
:10434000200040008000000101010103070100007E
:104350000804020408010101000000000102030436
:104360000102030406070809F41011111111A1BF7D
:104370008555FE19A0015A3FB7DBAA9E19CE14BF7E
:104380003952E686CACFD03E2DC3096EB7FD8ABE2C
:10439000C04300080000002424000000B42F0008DF
:1043A000C04300080000002000000200C42F0008E5
:1043B000E44300082400002494000400C42F0008F3
:1043C0000100000010000000000000000090D00379
:1043D0000090D0030000000000000000000000007A
:0443E00000000000D9
:04000005080002CD20
:00000001FF
